:020000040800F2
:1000000090070020350200083D0200083F0200086A
:1000100041020008430200084502000800000000F9
:10002000000000000000000000000000470200087F
:1000300049020008000000004B0200084D020008C1
:100040004F0200084F0200084F0200084F0200084C
:100050004F0200084F0200084F0200084F0200083C
:100060004F0200084F0200084F0200084F0200082C
:100070004F0200084F0200084F0200084F0200081C
:100080004F0200084F0200084F0200080000000065
:100090000000000000000000000000004F02000807
:1000A0004F0200084F0200084F0200084F020008EC
:1000B000E9030008590400084F0200084F02000835
:1000C0004F0200084F0200084F0200084F020008CC
:1000D0004F0200084F0200084F0200080000000015
:1000E0004F0200084F0200084F0200080000000005
:1000F0000000000000000000000000004F020008A7
:10010000000000004F0200084F0200084F020008E4
:1001100000000000000000000000000000000000DF
:100120004F0200084F0200084F0200084F0200086B
:100130004F02000800000000000000000000000066
:100140000000000000000000000000004F02000856
:100150004F0200084F0200084F0200084F0200083B
:100160004F0200084F0200080000000000000000DD
:10017000000000000000000000000000000000007F
:10018000000000004F020008000000000000000016
:100190004F02000800F002F800F03CF80AA090E8D6
:1001A000000C82448344AAF10107DA4501D100F032
:1001B00031F8AFF2090EBAE80F0013F0010F18BFC3
:1001C000FB1A43F0010318471C0B00003C0B000016
:1001D000103A24BF78C878C1FAD8520724BF30C873
:1001E00030C144BF04680C60704700000023002445
:1001F00000250026103A28BF78C1FBD8520728BF37
:1002000030C148BF0B6070471FB500F05EFD1FBDD9
:1002100010B510BD00F031F81146FFF7F5FF00F002
:1002200041FC00F04FF803B4FFF7F2FF03BC00F00D
:1002300057F800000948804709480047FEE7FEE7F5
:10024000FEE7FEE7FEE7FEE7FEE7FEE7FEE7FEE786
:1002500004480549054A064B70470000CD030008D5
:1002600095010008900100209007002090030020D5
:1002700090030020704770477047754600F02CF8D7
:10028000AE4605006946534620F00700854618B083
:1002900020B5FFF7DDFFBDE820404FF000064FF02E
:1002A00000074FF000084FF0000BAC46ACE8C00967
:1002B000ACE8C009ACE8C009ACE8C00921F007010E
:1002C0008D46704710B50446AFF300802046BDE868
:1002D0001040FFF7A8BF0000004870472000002032
:1002E00001491820ABBEFEE726000200704700005F
:1002F00010B540F21441C4F202010A68044602F04B
:100300000400086004F57F40C1F8000400F07EF9A5
:100310000A20042C38BF142000F06CF910BD000036
:1003200080B540F21441C4F202010A6800F57F4032
:1003300042F001020A6005220A60C1F8000400F0E0
:1003400065F90A2000F056F980BD000080B540F242
:100350000040C4F2020045F25551C0F80014016893
:1003600041F0150101604FF4400181614FF4967036
:1003700000F040F93020FFF7BBFF642000F03AF9AD
:100380003020FFF7B5FF0A2000F034F93020FFF7E6
:10039000AFFF0A2000F02EF93820FFF7A9FF0A204E
:1003A00000F028F90620FFF7A3FF0A2000F022F949
:1003B0000120FFF79DFF0A2000F01CF90F20FFF736
:1003C00097FF0A2000F016F980BD00004EF6885015
:1003D000CEF20000016841F4700101604FF000614D
:1003E00040F8801C7047000080B5102142F20800E0
:1003F000C4F200010022C4F201000A60016841F069
:100400008041016050F8081C8907FBD540F28C1E22
:1004100040F21C03C2F2000EC2F20003DEF800201C
:100420001B6892FBF3F101FB132181B940F2881C98
:10043000C2F2000CDCF800307F2B08DC406C40F28C
:100440000811C2F20001C854581CCCF80000501C1E
:10045000CEF8000080BD000070B540F21040C4F23C
:100460000000002440F28C1140F21C020460C2F231
:100470000001C2F200020868126840F2840590FB95
:10048000F2F0802292FBF0F040F20412C2F200027D
:10049000106040F20812C2F20002C2F2000500BF72
:1004A000135D2B550444802CFADB40F28810C2F215
:1004B00000000022026040F20C00C2F2000000685E
:1004C0000A6000F087FB012000F094F8802600BF4E
:1004D000285D00F07FFB012000F08CF8013EF7D191
:1004E00070BD000000F01F00012101FA00F04EF283
:1004F0000011CEF2000108607047000010B540F214
:10050000000040F20404C2F20000C2F2000490EDC8
:10051000001A40F2100094ED000AC2F200000068D8
:1005200030EE410A84ED000A00F054FB642000F034
:1005300061F894ED000ABCEEC00A10EE100A00F05B
:1005400049FB642000F056F894ED000ABCEEC01A96
:10055000B8EE411A30EE410AB2EE041A20EE010A5A
:10056000BCEEC00A10EE100A00F034FB642000F06C
:1005700041F800F0A1F910BD10B540F2080040F2BA
:100580008004C2F20000C2F2000490ED001A40F2B2
:10059000140094ED000AC2F20000006830EE410A37
:1005A00084ED000A00F016FB642000F023F894EDBF
:1005B000000ABCEEC00A10EE100A00F00BFB64202B
:1005C00000F018F894ED000ABCEEC01AB8EE411A1B
:1005D00030EE410AB2EE041A20EE010ABCEEC00A67
:1005E00010EE100A00F0F6FA642000F003F800F0B4
:1005F0009DF910BD0128B8BF704700BF40F23D61B2
:10060000013900BFFCD10138F8DC704710B540F269
:100610001444C4F20204206840F004002060012069
:10062000FFF7E8FF206800F00300206010BD000025
:1006300010B540F2000040F20404C2F20000C2F221
:10064000000490ED001A40F2100094ED000AC2F28E
:100650000000006830EE010A84ED000A00F0BAFAEA
:100660006420FFF7C7FF94ED000ABCEEC00A10EE4D
:10067000100A00F0AFFA6420FFF7BCFF94ED000A07
:10068000BCEEC01AB8EE411A30EE410AB2EE041ABE
:1006900020EE010ABCEEC00A10EE100A00F09AFA31
:1006A0006420FFF7A7FF00F007F910BD10B540F276
:1006B000080040F28004C2F20000C2F2000490ED93
:1006C000001A40F2140094ED000AC2F20000006823
:1006D00030EE010A84ED000A00F07CFA6420FFF796
:1006E00089FF94ED000ABCEEC00A10EE100A00F07B
:1006F00071FA6420FFF77EFF94ED000ABCEEC01A89
:10070000B8EE411A30EE410AB2EE041A20EE010AA8
:10071000BCEEC00A10EE100A00F05CFA6420FFF78D
:1007200069FF00F003F910BD43F63000C4F2020087
:100730000168002241F0070101600021C4F20201BA
:100740000A600A684FF6FE7342F033020A6042699B
:1007500042F48072426142F20800C4F20100026871
:1007600042F48062026002681A400260026842F04D
:1007700001020260086840F0AA400860704700006B
:100780002DE9F04381B040F210454FF60446C4F223
:100790000205CFF6FF764EF6FF70A8510F20FFF747
:1007A00029FF0520FFF726FF286841F20007CFF652
:1007B000FF77384269D00520FFF71CFF286842F216
:1007C0000008CFF6FF7810EA080F60D00520FFF789
:1007D00011FF286844F20009CFF6FF7910EA090FEB
:1007E00057D04DF6FF70A8510F20FFF703FF0520EB
:1007F000FFF700FF286838424DD005200524FFF799
:10080000F9FE286810EA080F52D00520FFF7F2FE23
:10081000286810EA090F40D04BF6FF70A8510F204E
:10082000FFF7E8FE0520FFF7E5FE2868384236D0DE
:100830000520FFF7DFFE286810EA080F31D00520F9
:10084000FFF7D8FE286810EA090F2CD047F6FF7092
:10085000A8510F20FFF7CEFE0520FFF7CBFE28683A
:10086000384222D00520FFF7C5FE286810EA080F9D
:100870001DD00520FFF7BEFE29680C2011EA090FE4
:1008800008BF0B2001B0BDE8F083012410E0022472
:100890000EE003240CE004240AE0062408E0072408
:1008A00006E0082404E0092402E00A2400E0002411
:1008B000204601B0BDE8F08310B50220FFF718FD17
:1008C0001420FFF715FD1420FFF712FD40F2040479
:1008D000C2F2000494ED000ABDEEC00A10EE100A48
:1008E0003030C0B2FFF71CFD0520FFF783FE2E203D
:1008F000FFF716FD0520FFF77DFE94ED000ABCEE24
:10090000C01AB8EE411A30EE410AB2EE041A20EED7
:10091000010ABCEEC00A10EE100A3030C0B2FFF778
:10092000FFFC0520FFF766FE10BD000010B5022099
:10093000FFF7DEFC1420FFF7DBFC1420FFF7D8FCE8
:100940001420FFF7D5FC1420FFF7D2FC1420FFF78A
:10095000CFFC1420FFF7CCFC1420FFF7C9FC1420B7
:10096000FFF7C6FC40F28004C2F2000494ED000AD6
:10097000BDEEC00A10EE100A3030C0B2FFF7D0FC56
:100980000520FFF737FE2E20FFF7CAFC0520FFF7F2
:1009900031FE94ED000ABCEEC01AB8EE411A30EEFA
:1009A000410AB2EE041A20EE010ABCEEC00A10EEB3
:1009B000100A3030C0B2FFF7B3FC0520FFF71AFE73
:1009C00010BD000070B50220FFF792FC1420FFF765
:1009D0008FFC1420FFF78CFC1420FFF789FC1420F7
:1009E000FFF786FC1420FFF783FC1420FFF780FC40
:1009F0001420FFF77DFC1420FFF77AFC1420FFF78A
:100A000077FC1420FFF774FC1420FFF771FC14200E
:100A1000FFF76EFC1420FFF76BFC1420FFF768FC57
:100A20001420FFF765FC1420FFF762FC1420FFF789
:100A30005FFC1420FFF75CFC1420FFF759FC142026
:100A4000FFF756FC1420FFF753FC1420FFF750FC6F
:100A50001420FFF74DFC1420FFF74AFC1420FFF789
:100A600047FC1420FFF744FC40F21800C2F20000DB
:100A70000468002C08BF70BD4CF6CD45CCF6CC45C3
:100A8000A4FB0501CE0806EB8600A4EB4000C0B233
:100A9000FFF746FC0520FFF7ADFD092C3446EFD8E3
:100AA00070BD0000FFF740FE00F0E8F8FFF74EFCD5
:100AB00000F0A2F86420FFF79DFD00F0BDF864206F
:100AC000FFF798FD4120FFF72BFC0120FFF792FD77
:100AD0003D20FFF725FC0120FFF78CFDFFF7ECFE22
:100AE0001420FFF705FC4220FFF71AFC0120FFF756
:100AF00081FD3D20FFF714FC0120FFF77BFDFFF790
:100B000015FF1420FFF7F4FB1420FFF7F1FB14206E
:100B1000FFF7EEFB1420FFF7EBFB1420FFF7E8FBD9
:100B20001420FFF7E5FB5420FFF7FAFB0120FFF745
:100B300061FD6920FFF7F4FB0120FFF75BFD6D20ED
:100B4000FFF7EEFB0120FFF755FD6520FFF7E8FBFF
:100B50000120FFF74FFD2020FFF7E2FB0120FFF708
:100B600049FD5520FFF7DCFB0120FFF743FD6E2018
:100B7000FFF7D6FB0120FFF73DFD6920FFF7D0FB13
:100B80000120FFF737FD7420FFF7CAFB0120FFF7B4
:100B900031FD3D20FFF7C4FB0120FFF72BFDFFF7E0
:100BA00011FF00BFFFF7ECFD01380328FAD8DFE89A
:100BB00000F006090D0300BFFFF7DEFCF2E7FFF7C8
:100BC00037FDEFE7FFF79AFCECE700BFFFF76EFD9C
:100BD000E8E7000010B541F20004C4F2010400BFD0
:100BE00021680906FCD560600220FFF703FD00BF05
:100BF00020684006FCD510BD80B5EFF3108072B6BA
:100C000043F64000C4F202000168012241F00101F4
:100C100001600C20C4F200000F21C16109210162B2
:100C20004FF080410A60016841F0010101601C2021
:100C3000FFF758FC62B680BD80B5EFF3108072B646
:100C400043F64000C4F20200016841F00201016075
:100C500040F20C40C4F2000040F23F61C16140F23A
:100C6000CF710162012140F80C1C016841F00101C3
:100C700001601D20FFF736FC62B680BD43F63000F0
:100C8000C4F20200016841F001010160416941F0D4
:100C9000100141610020C4F202004FF4EE61416294
:100CA000016841F42011016041F20C00C4F201001E
:100CB0008B2140F8041C0C210160002141608160FF
:100CC000016841F4005101607047F1EE100A4FF6DF
:100CD000FF71C0F2C03120EA010040F04070E1EE47
:100CE000100A7047080D00080000002020000000D6
:100CF000D0010008280D0008200000207007000027
:100D0000EC01000800000000CDCCCC3D0000803F8D
:100D1000CDCCCC3D0300000001000000020000002B
:080D2000640000006400000003
:040000050800019559
:00000001FF
