:020000040800F2
:10000000700E0020350200083D0200083F02000883
:1000100041020008430200084502000800000000F9
:10002000000000000000000000000000470200087F
:1000300049020008000000004B0200084D020008C1
:100040004F0200084F0200084F0200084F0200084C
:100050004F0200084F0200084F0200084F0200083C
:100060004F0200084F0200084F0200084F0200082C
:100070004F0200084F0200084F0200084F0200081C
:100080004F0200084F0200084F0200080000000065
:100090000000000000000000000000004F02000807
:1000A0004F0200084F0200084F0200084F020008EC
:1000B0004F0200084F0200084F0200084F020008DC
:1000C0004F0200084F0200084F0200084F020008CC
:1000D0004F0200084F0200084F0200080000000015
:1000E0004F0200084F0200084F0200080000000005
:1000F0000000000000000000000000004F020008A7
:10010000000000004F0200084F0200084F020008E4
:1001100000000000000000000000000000000000DF
:100120004F0200084F0200084F0200084F0200086B
:100130004F02000800000000000000000000000066
:100140000000000000000000000000004F02000856
:100150004F0200084F0200084F0200084F0200083B
:100160004F0200084F0200080000000000000000DD
:10017000000000000000000000000000000000007F
:10018000000000004F020008000000000000000016
:100190004F02000800F002F800F03CF80AA090E8D6
:1001A000000C82448344AAF10107DA4501D100F032
:1001B00031F8AFF2090EBAE80F0013F0010F18BFC3
:1001C000FB1A43F001031847BC060000DC060000E0
:1001D000103A24BF78C878C1FAD8520724BF30C873
:1001E00030C144BF04680C60704700000023002445
:1001F00000250026103A28BF78C1FBD8520728BF37
:1002000030C148BF0B6070471FB500F02DFB1FBD0C
:1002100010B510BD00F082F81146FFF7F5FF00F0B1
:10022000A3F900F0A0F803B4FFF7F2FF03BC00F05D
:10023000A7F800000948804709480047FEE7FEE7A5
:10024000FEE7FEE7FEE7FEE7FEE7FEE7FEE7FEE786
:1002500004480549054A064B704700006104000840
:100260009501000870080020700E0020700A002020
:10027000700A002002F0FF0343EA032242EA02422E
:1002800000F005B87047704770474FF0000204292E
:10029000C0F0128010F0030C00F01B80CCF1040CB5
:1002A000BCF1020F18BF00F8012BA8BF20F8022BE9
:1002B000A1EB0C0100F00DB85FEAC17C24BF00F88F
:1002C000012B00F8012B48BF00F8012B70474FF0BD
:1002D000000200B5134694469646203922BFA0E896
:1002E0000C50A0E80C50B1F12001BFF4F7AF0907A2
:1002F00028BFA0E80C5048BF0CC05DF804EB890093
:1003000028BF40F8042B08BF704748BF20F8022BD5
:1003100011F0804F18BF00F8012B7047754600F0B0
:100320002BF8AE4605006946534620F00700854687
:1003300018B020B5FFF78CFFBDE820404FF0000655
:100340004FF000074FF000084FF0000BAC46ACE850
:10035000C009ACE8C009ACE8C009ACE8C00921F0AC
:1003600007018D46704710B50446AFF30080204664
:10037000BDE81040FFF757BF004870470800002055
:1003800001491820ABBEFEE72600020070470000BE
:1003900070B543F63000C4F20200016845F25552D0
:1003A00041F0040101600020C4F20200016840F63F
:1003B000140411430160D0F8001840F255121143A3
:1003C000C0F800188169C4F2020441F47F01816120
:1003D000606840F4F81060602068002020601E20F3
:1003E00000F084F8206800F0EF0020601E2000F08C
:1003F0007DF8206840F0100020601E2000F076F8A4
:100400003F2000F03BF81E2000F070F8402000F084
:1004100035F81E2000F06AF8BA2000F02FF81E20F0
:1004200000F064F840F26C40C2F2000040F26C064A
:10043000A0F108046FF00705C2F200067019083039
:100440004021FF220834FFF715FF20464021FF22FC
:10045000FFF710FF0835B5F57E7FEFD170BD0000C6
:100460004EF68850CEF20000016841F47001016040
:100470004FF0006140F8801C7047000070B540F6F6
:100480001405C4F202052968044601F01D01296023
:1004900029684FF6000601F01B002860CFF6FF76B2
:1004A0000020A851012000F021F8AC5100F04AF8DA
:1004B00070BD000070B540F61405C4F2020529684D
:1004C000044641F00401296029684FF6000601F056
:1004D0001D002860CFF6FF760020A851012000F013
:1004E00005F8AC5100F02EF870BD00000128B8BF2F
:1004F000704700BF40F23D61013900BFFCD10138B7
:10050000F8DC704780B5CB1701EB537E002A2EF044
:10051000070240F26C43A2EB010140F26C0CC2F204
:10052000000301F107014FF6FF62C2F2000C08BFA1
:10053000634603EBC00002FA01F1A0EBEE00090AEA
:10054000C17180BD10B540F61404C4F202042068E5
:1005500040F0110020600120FFF7C8FF206800F084
:100560001E00206010BD000000F05CF9FFF710FFD6
:1005700002E000BF00F090F800F00EF8032807D06A
:100580000228F7D00128F7D100F066F8F4E700BFA1
:1005900000F010F8F0E7000041F20000C4F20100A2
:1005A0000168890604D400BF00BF01688906FBD535
:1005B0004068704770B5ADF5806D80A8041F802538
:1005C000264600BFFFF7E8FF46F8040F0120FFF7BB
:1005D0008DFF013DF6D140F20000C2F2000090ED27
:1005E000000A40F26800C2F2000090ED001A68466E
:1005F00004388021024600BF54F8043F013902EE5E
:10060000103AB8EE422A20EE022A31EE022A82ED9A
:10061000012A02F10402EFD140F204050024C2F2E3
:10062000000500BF90ED010A2A68BDEEC00A061D54
:1006300010EE101A2046FFF765FF0134802C30467B
:10064000F0D1286800F048F82868C0F1010028605F
:100650000DF5806D70BD0000B0B5FFF79DFF04463D
:100660006420FFF743FFFFF797FF05466420FFF77D
:100670003DFF04EB840005EB400000EE100AB8EEED
:10068000400AB2EE041A80EE010A40F20000C2F203
:10069000000080ED000AB0BDB0B5FFF77DFF044655
:1006A0006420FFF723FFFFF777FF05466420FFF77D
:1006B0001DFF04EB840005EB400000EE100AB8EECD
:1006C000400AB2EE041A80EE010A40F26800C2F25B
:1006D000000080ED000AB0BD2DE9F04381B040F686
:1006E0001408C4F20208D8F80010044641F00800CB
:1006F000C8F800002CB3012C40F0918040F26C4906
:100700000026C2F2000902E00136402E3BD046F03E
:100710004000C0B2FFF7B2FE002700BF47F0B800AC
:10072000C0B2FDB2FFF7AAFE09EBC604605DFFF799
:10073000C1FE605DFF28E7D1072D07F10107EDD36A
:10074000E2E740F26C09C2F2000902E00134402CF9
:100750003FD044F04000C0B2FFF790FE002700BF3A
:1007600047F0B800C0B2FDB2FFF788FE09EBC4063F
:10077000705DFFF79FFE705DFF28E7D1072D07F141
:100780000107EDD3E2E7D8F80000402500F017009C
:10079000C8F8000003E000BF0135802D3FD045F0D0
:1007A0004000C0B2FFF76AFE002600BF46F0B80066
:1007B000C0B2F7B2FFF762FE09EBC504E05DFFF7D8
:1007C00079FEE05DFF28E7D1072F06F10106EDD3A2
:1007D000E2E7D8F80000402400F01700C8F8000055
:1007E00003E000BF0134802C19D044F04000C0B2B7
:1007F000FFF744FE002500BF45F0B800C0B2EFB2DD
:10080000FFF73CFE09EBC406F05DFFF753FEF05D19
:10081000FF28E7D1072F05F10105EDD3E2E701B08D
:10082000BDE8F08343F63000C4F20200012101600C
:10083000102141610020C4F202004FF4EE614162D8
:100840004FF42011016041F20C00C4F201008B2131
:1008500040F8041C0C2101600021416081600168A6
:1008600041F4005101607047F1EE100A4FF6FF713C
:10087000C0F2C03120EA010040F04070E1EE100A01
:1008800070470000A80800080000002008000000D1
:10089000D0010008B008000808000020680E000021
:1008A000EC010008000000000000803F0100000093
:040000050800019559
:00000001FF
